:060000000A128A11182902
:10000800F000030EF100031383120B1866200B197E
:100018001F200C181420710E8300F00E700E0900BA
:1000280003138312E1308F00031383127C308E0098
:10003800A10A0C1008004221880137183328B71884
:10004800372837193B28B7193F28371A4328B71AD2
:100058004728371B4B282908870008144F282A08E7
:100068008700881452282B088700081555282C0863
:100078008700881558282D08870008165B282E0841
:10008800870088165E282F0887000817612830081F
:100098008700881764280130B70608000330B706C0
:1000A80008000630B70608000C30B70608001830FC
:1000B800B70608003030B70608006030B7060800F9
:1000C800B7010800061C1622861C1F22061DCD211A
:0400D8000B10080001
:100200008A010A140F3982073F3406345B344F34B5
:1002100066346D347D3407347F346F3477347C3406
:0802200039345E347934713485
:100230002823542346210313831607309600031303
:1002400083120B108B178B158B160B1162236A23ED
:1002500071237623B201031383128501860187017E
:100260008801890140184D21C0186121401975216C
:10027000C019C221532232184129282289219C21E8
:10028000AF213229FF3081000B11080003138316C0
:100290000F138F160F120F140800B601B3010310CD
:1002A0002008BD00B6000A30B30AB602031854296C
:1002B000B303B60733080021AF0036080021B000B1
:1002C0000800B601B30103102008BE00B6000A30D2
:1002D000B30AB60203186829B303B607330800212E
:1002E000AF0036080021B0000800B601B3010310CA
:1002F0002008BF00B6000A30B30AB60203187C29F2
:10030000B303B60733080021AF0036080021B00060
:100310000800B601B30103102508B6000A30B30A7D
:10032000B60203188F29B303B60733080021A900CA
:1003300036080021AA000800B601B3010310260800
:10034000B6000A30B30AB6020318A229B303B607EF
:1003500033080021AB0036080021AC000800B601CC
:10036000B30103102708B6000A30B30AB602031817
:10037000B529B303B60733080021AD0036080021C4
:10038000AE0008000A300021AF000C300021B000A0
:10039000061C1823861C0F220800B50A3918E42908
:1003A000B918F2293919002AB9190F2A8612061329
:1003B000861303110130BC0035083C02031DE329FC
:1003C000861639144014080003110230BC003508A9
:1003D0003C02031DF129861206173910B91440108A
:1003E000C014080003110330BC0035083C02031D93
:1003F000FF2986160617B9103915C01040150800D8
:1004000003110430BC0035083C02031D0C2A86127F
:10041000061386173911B9154011C0150800AF0130
:10042000B0018613B901B501C0010800A00A03118B
:1004300015302002031D1E2A0A30A0000800A00368
:10044000031109302002031D272A1430A0000800E0
:100450003818392AB818452A38194F2A03112208A2
:10046000A5002108A502031D382A38140030A10078
:10047000080003112308A6002108A602031D442A30
:100480003810B8140030A100080003112408A70098
:100490002108A702031D4E2AB81038150800A10133
:1004A000B8010C1008003B187C2ABB188D2A3B1998
:1004B0009A2ABB19AC2A3B1ABD2ABB1ACA2A3B1B73
:1004C000DE2ABB1BEF2A3A18FD2A031105108510FE
:1004D00005158515051285120517851306122208C4
:1004E000C1000630C1024108B4002108C102031D49
:1004F0007B2A05113B14080003110515F830B100E3
:10050000B10B802A051103303407C2002108C20252
:10051000031D8C2A3B10BB14080003118514063000
:100520003407C3002108C302031D992ABB103B15E1
:100530008510080003118511051485162308C100D4
:100540000630C1024108B4002108C102031DAB2AD4
:1005500085123B11BB15080003118516F830B10058
:10056000B10BB02A851203303407C2002108C20241
:10057000031DBC2ABB113B160800031105160630EB
:100580003407C3002108C302031DC92A3B12BB164E
:100590000512080003110513851506162308C1006E
:1005A0002808C1022808C1024108B4002108C1027C
:1005B000031DDD2A0612BB123B17080003110616A5
:1005C000F830B100B10BE22A061203303407C20042
:1005D0002108C202031DEE2A3B13BB1708000311BA
:1005E000851706303407C3002108C302031DFC2A07
:1005F000BB133A14851305170800C101C201C301DA
:10060000B401BB013A1083010800F830B100B10B0E
:10061000072BF830B100B10B0B2B08000F22B801EB
:10062000BB01B901A101C001A501A601A7010800F4
:100630000530A80032140E233D08A2003E08A30096
:100640003F08A400F830B100B10B242B3210080091
:10065000031783168801890103138316051085107B
:1006600005118511051285120513851303138316D1
:100670000614861406150612861206138613031333
:1006800083160710871007118711071287120713A7
:100690008713031383160810881008118811081295
:1006A0008812081388130800031383168113031399
:1006B0008316151495141515951115129512151309
:1006C00095130800031383168112811101148114FC
:1006D00001150800031383129016101690101014C1
:1006E0000800031383124E30920008000A30A00065
:0C06F000A200A300A4000630A80008002F
:04400E00C430FF3F7C
:00000001FF
